:020000040800F2
:10000000B843002099010008350A0008310A0008A9
:10001000330A000829020008250B00080000000030
:1000200000000000000000000000000001010008C6
:100030002B0200080000000045010008750A0008B6
:10004000B3010008B3010008B3010008B3010008C0
:10005000B3010008B3010008B3010008B3010008B0
:10006000B3010008B3010008B3010008B3010008A0
:10007000B3010008B3010008B3010008B301000890
:10008000B3010008B3010008B3010008B301000880
:10009000B3010008B3010008B3010008B301000870
:1000A000B3010008B3010008B3010008B301000860
:1000B000B3010008B3010008B3010008B301000850
:1000C000B3010008B3010008B3010008B301000840
:1000D000B3010008B3010008B3010008B301000830
:1000E000B3010008B3010008B3010008DFF80CD029
:1000F00000F088F800480047650B0008B84300206E
:10010000224B19680868B0E8F00F80F30988BFF344
:100110006F8F4FF0000080F311884EF00D0E704786
:100120000000000006480068006880F3088862B696
:1001300061B6BFF34F8FBFF36F8F00DF00BF00BF0B
:1001400008ED00E0EFF30980BFF36F8F0F4B1A68E3
:1001500020E9F00F106008B54FF0500080F31188CF
:10016000BFF34F8FBFF36F8F01F0CEF84FF0000059
:1001700080F31188BDE8084019680868B0E8F00FFE
:1001800080F30988BFF36F8F704700BF1400002011
:10019000EFF3058070470000064880470648004797
:1001A000FEE7FEE7FEE7FEE7FEE7FEE7FEE7FEE727
:1001B000FEE7FEE7DD0A0008ED00000840EA010363
:1001C0009B0703D009E008C9121F08C0042AFAD20D
:1001D00003E011F8013B00F8013B521EF9D27047D1
:1001E000D2B201E000F8012B491EFBD27047002279
:1001F000F6E710B513460A4604461946FFF7F0FF26
:10020000204610BD064C074D06E0E06840F00103B3
:1002100094E8070098471034AC42F6D3FFF76AFF22
:10022000F416000814170008FEE770472DE9F84F90
:10023000DFF8B891002409F1040A0AF1040B2346FF
:100240000F270BF1040EC9E00125A5402A40AA4260
:100250007DD1674ED1F804C0ACEB0608B44532D06E
:1002600014DCBCF1030F3AD009DCBCF1000F2AD03A
:10027000BCF1010F1CD0BCF1020F31D11DE0BCF16B
:10028000110F17D0BCF1120F2AD119E0B8F5881F51
:1002900019D006DCB8F5803F15D0B8F5801F1FD106
:1002A00011E0B8F5001F0ED0B8F5041F18D10AE010
:1002B000CB6815E0CB681B1D12E0CB6808330FE05C
:1002C000CB680C330CE08B682BB1012B4FF008038B
:1002D00003D0456104E0042302E0056100E000234F
:1002E000FF2A01D8064601E000F104064FEA840522
:1002F00001D9A5F12005D6F8008007FA05FC28EA07
:100300000C0803FA05F548EA0508C6F800804D68B0
:10031000ED0062D5374DAE6946F00106AE61AD69BC
:1003200024F0030605F001050095334D06EB050C9E
:10033000DCF80850A607360F07FA06F825EA080584
:10034000DFF8B880404503D14FF0000817E044E0E3
:10035000DFF8AC80404502D14FF001080FE0DFF834
:10036000A480404502D14FF0020808E0DFF89880F1
:10037000404502D14FF0030801E04FF0040808FAAD
:1003800006F848EA0508CCF808804D68D9F80060FE
:10039000ED034D4601D5164300E096432E604D68AF
:1003A000DAF80060AD03554601D5164300E09643E8
:1003B0002E604D68DBF80060ED025D4601D5164306
:1003C00000E096432E604D68DEF80060AD02754691
:1003D00001D5164300E096432E60641C0D682A4642
:1003E000E5407FF431AFBDE8F88F00000004014024
:1003F0000000111000100240000001400008014000
:10040000000C01400010014000140140C2680A4283
:1004100001D041617047016170470AB101617047C5
:100420000904FBE7014880687047000004000020D1
:1004300002488168027811448160704704000020FE
:10044000074810B5016841F010010160032000F079
:100450006DF80F2000F006F800F024F8002010BD21
:100460000020024070B50D4D04464FF47A71287893
:10047000B1FBF0F00A490968B1FBF0F000F0C4FAF2
:1004800048B9102C07D200222146501E00F02EF849
:1004900000206C6070BD012070BD000004000020D1
:1004A000100000200F4808B5816941F00101816109
:1004B000816901F001010091C16941F08051C16180
:1004C000C069002200F0805000900F21901E00F0C3
:1004D0000DF80548416821F0E06141F0007141608C
:1004E00008BD00000010024000000140F0B40E4BB7
:1004F0001B680C46C3F30223C3F10705042D00D982
:100500000425191D072901D2002300E0DB1E012666
:1005100006FA05F1491E214099409E40761E16407C
:100520003143F0BC00F0FFBA0CED00E0064900F0EA
:10053000070208684FF6FF03184040EA0220034A0A
:1005400010430860704700000CED00E00000FA0561
:100550002DE9F0470F46050061D0434E306800F0AA
:100560000700B84209D2306820F0070038433060F5
:10057000306800F00700B84251D128683B4C810731
:1005800012D5400703D5606840F4E06060602878C9
:10059000000703D5606840F4605060606068A96837
:1005A00020F0F000084360602878C00728D0686811
:1005B000012810D02168022810D0890700292EDADE
:1005C000616821F0030101436160FFF72BFF804662
:1005D00041F288390DE021688903EFE78901EDE7F1
:1005E000FFF720FFA0EB0801494502D90320BDE831
:1005F000F0876068696800F00C00B0EB810FEFD104
:10060000306800F00700B8420BD9306820F00700CE
:1006100038433060306800F00700B84201D0012054
:10062000E5E72878400705D56068E96820F4E060D0
:10063000084360602878000706D56068296920F4BF
:10064000605040EAC100606000F018F86168084A34
:10065000C1F30311515CC8400649086006480068B0
:10066000FFF700FF0020C2E7002002400010024018
:10067000C8160008100000200800002012A185B054
:100680000FC98DE80F0014A0144A00680490516847
:10069000134801F00C03042B10D0082B0ED1C1F32A
:1006A0008343C9031DF803000AD5516804AAC1F3A6
:1006B0004041515C0A4A5043B0FBF1F005B070472D
:1006C00008494843FAE70000020304050607080941
:1006D0000A0B0C0D0E0F101001020000001002405A
:1006E00000127A0000093D002DE9F84F040070D097
:1006F0002078C04DC00749D06868C0F38100012848
:1007000007D06868C0F38100022809D16868C00377
:1007100006D52868800339D560680028E7D035E021
:100720006068B0F5803F0BD010B1B0F5A02F11D0AC
:10073000286820F480302860286820F4802002E0B7
:10074000286840F480302860606890B1FFF76AFE46
:1007500006460AE0286840F480202860F0E700BFE1
:10076000FFF760FE801B642873D828688003F7D5E4
:100770000CE0FFF757FE064605E000BFFFF752FE0C
:10078000801B6428F0D828688003F7D420789A4E1C
:1007900080074FF001094FF0000839D5686810F064
:1007A0000C0F07D06868C0F38100022809D168687F
:1007B000C00306D42868800714D52069012808D111
:1007C00010E02069B0B1C6F80090FFF72BFE074695
:1007D00005E00AE1FFF726FEC01B0228C4D82868FE
:1007E0008007F7D52868616920F0F80040EAC10069
:1007F00028600DE0C6F80080FFF714FE074604E00D
:10080000FFF710FEC01B022823D828688007F7D402
:10081000207800072CD57948A169D9B1C0F800909B
:10082000FFF700FE074604E0FFF7FCFDC01B0228AF
:100830000FD8686A8007F7D571484FF4FA510068FD
:10084000B0FBF1F0009000BF0098411E0091FAD279
:100850000EE080E0C0F80080FFF7E4FD074604E00A
:10086000FFF7E0FDC01B022875D8686A8007F7D43F
:100870002078400760D5E8690027C00008D4E869FF
:1008800040F08050E861E869012700F08050009056
:100890005C480168C90513D40168834641F480713E
:1008A0000160FFF7BFFD824606E000BFFFF7BAFD1B
:1008B000A0EB0A0064284ED8DBF80000C005F5D58F
:1008C000E06801280AD008B1052813D0286A20F072
:1008D00001002862286A20F0040002E0286A40F043
:1008E00001002862E06841F2883B98B1FFF79AFD69
:1008F00082460BE0286A40F004002862EEE700BF61
:10090000FFF790FDA0EB0A0159455AD8286A8007E5
:10091000F6D50CE0FFF786FD824605E0FFF782FD85
:10092000A0EB0A0159454CD8286A8007F6D41FB1BC
:10093000E86920F08050E861E06988B36968C1F334
:100940008101022944D00228C6F8608004D0FFF754
:1009500069FD044638E034E0FFF764FD074604E033
:10096000FFF760FDC01B02282BD828688001F7D450
:10097000206AB0F5803F05D16868A16820F4003096
:1009800008436860D4E908010843696821F47411D8
:1009900008436860C6F86090FFF744FD044606E02F
:1009A00025E000BFFFF73EFD001B022809D828689C
:1009B0008001F7D51BE000BFFFF734FD001B0228C4
:1009C00002D90320BDE8F88F28688001F4D40EE036
:1009D0000128F7D06868226A00F48031914204D17E
:1009E000616A00F47010884201D00120EAE700201B
:1009F000E8E700000010024000004242800442424A
:100A0000100000200070004010B5401EB0F1807F43
:100A100001D3012010BD4FF0E02460610F21601769
:100A200000F081F80020A06107202061002010BDA7
:100A3000FEE7FEE770470000064D4FF480644FF478
:100A40007A7621462846FFF7E1FC304600F0DEF8D2
:100A5000F7E7000000080140054D4FF400742146FF
:100A60002846FFF7D3FC642000F0D0F8F7E7000039
:100A70000008014010B5FFF7DBFC00F035FD012850
:100A800003D0BDE8104000F0C1BC10BD30B58FB040
:100A900028216846FFF7ABFB14210AA8FFF7A7FB44
:100AA00001210804CDE900100024029402250491DC
:100AB000CDE907504FF4E01009906846FFF714FEA7
:100AC0000F20CDE90A056802CDE90C4002210AA8F1
:100AD0000E94FFF73DFD0FB030BD00000D480168DA
:100AE00041F00101016041680B4A11404160016819
:100AF0000A4A11400160016821F4802101604168C7
:100B000021F4FE0141604FF41F0181600449C003DC
:100B100008607047001002400000FFF8FFFFF6FE7B
:100B200008ED00E0FEE70907090E002804DB00F1EC
:100B3000E02080F80014704700F00F0000F1E02082
:100B400080F8141D704702E008C8121F08C1002A6F
:100B5000FAD170477047002001E001C1121F002A3E
:100B6000FBD1704794B0FFF76BFCFFF78FFF0024B9
:100B70001F480094019402940394816941F020017C
:100B80008161816901F020011291816941F00401C4
:100B900081618069174E00F004004FF4C065129027
:100BA000002229463046FFF738FC01200095CDE9A8
:100BB00001040220039069463046FFF737FB1C22F0
:100BC0000D4904A8FFF7FAFA002104A800F02AF85A
:100BD0000A4C09491C2220601C310BA8FFF7EEFAD1
:100BE00000210BA800F01EF8206000F016F8FEE7C8
:100BF000001002400008014090160008000000208C
:100C000001460020842900D0C81C704710B500B9E7
:100C1000012000F015FB002010BD10B500F036FBE0
:100C2000002010BD7FB50D4604464169B0F90800AB
:100C300081B1A16971B1FFF7E3FFD4E905128DE835
:100C40000700D4E900102B46226900F022FC039033
:100C500004B070BDFFF7D4FF03A9CDE90001208ADD
:100C60002B4682B2D4E9001000F0E6FB012801D047
:100C70000020EDE70398EBE72DE9F041184C0F4613
:100C8000054666692068001D00F016FA38B920682C
:100C900090F82C1001208840A1698143A161681C53
:100CA00007D137B12168BDE8F0410E48091D00F0B9
:100CB00047BA20683544B5424560216805D2A0682E
:100CC000BDE8F041091D00F023BA6068091D00F07D
:100CD0001FFA206B854200D22563BDE8F081000039
:100CE00014000020A40300202DE9F041054600F087
:100CF00033FA2E4C2069401C206120682C4F10B123
:100D0000E06940B32DE025602069012829D1002643
:100D100006EB860007EB800000F0ECF9761C072E4E
:100D2000F6D323488C3000F0E5F92148A03000F0DC
:100D3000E1F91F48B43000F0DDF91D48C83000F07B
:100D4000D9F91B48DC3000F0D5F919488C306060C7
:100D50001430A06005E02068E96AC06A884200D8C3
:100D60002560E06A401CE062E96A0120A2698840CF
:100D70001043A06101EB810007EB8000291D00F00A
:100D8000DFF900F009FAE06900280CD02068E96A70
:100D9000C06A884207D207494FF080500860BFF30D
:100DA0004F8FBFF36F8FBDE8F0810000140000206B
:100DB000C802002004ED00E010B5044690F8510090
:100DC00058B101280CD002280FD0502080F3118890
:100DD000BFF34F8FBFF36F8FFEE7206B00F0F0F98A
:100DE0002046BDE8104000F0EBB910BD10484FF4AC
:100DF0007051420706D0C01D0D4920F00700411A6E
:100E0000C1F570510B4A00230144C2E900030839BF
:100E1000103A21F0070111604B600B600B1AC0E91A
:100E2000001393604FF000405360D06070470000A3
:100E3000B803002060000020144E154CA6F1C8072E
:100E40004FF08058DFF84C9012E000BF00F084F9BA
:100E5000F068C568281D00F02FF92069401E206148
:100E6000E068401EE06000F097F92846FFF7A4FF15
:100E7000E0680028EAD138680128F9D9C9F800806B
:100E8000BFF34F8FBFF36F8FF2E700009003002096
:100E90001400002004ED00E02DE9F0479A46DDE95A
:100EA000098481466FF00303206B03EB8202104438
:100EB000089D20F00706700707D0502080F31188A6
:100EC000BFF34F8FBFF36F8FFEE723180A5C83F8E1
:100ED00034200A5C12B1401C1028F6D3002784F895
:100EE0004370072D00D30625E562C4E91157201D84
:100EF00000F00BF904F1180000F007F92461C5F1C6
:100F000007006462A061E76484F850705246494665
:100F1000304600F0BFF82060B8F1000F01D0C8F8EB
:100F20000040BDE8F087000030B5114900E01146EF
:100F30000A688242FBD34B685C18844203D1406844
:100F400018444860084643681C18944209D1084C6C
:100F5000103C2468A24209D052681A4442600A68D0
:100F600012680260814200D0086030BD0460F9E779
:100F70006000002006484168096829B14168C968D5
:100F8000C9684968016370474FF0FF31FAE7000014
:100F90001400002008484068401C4FF0500080F3C7
:100FA000118804D0BFF34F8FBFF36F8FFEE7BFF3FD
:100FB0004F8FBFF36F8FFEE7680000202DE9F041EF
:100FC0000546002700F098F9314E306808B9FFF760
:100FD0000DFFF06805424BD1C5B3083568070ED048
:100FE00005F00700C0F108000544680707D050204D
:100FF00080F31188BFF34F8FBFF36F8FFEE72DB3E0
:101000007068854234D82248103001460C6801E0EF
:1010100020460C466168A94202D221680029F7D116
:1010200031688C4224D00768216801606068083705
:10103000411B10290FD96019420708D0502080F3B6
:101040001188BFF34F8FBFF36F8FFEE710E0416051
:101050006560FFF769FF61687068401A7060B26888
:10106000904200D2B060F06801430020C4E9000162
:1010700000F0ACFA780707D0502080F31188BFF356
:101080004F8FBFF36F8FFEE73846BDE8F081000059
:101090005000002010B5031F4FF080741C601B1F10
:1010A00021F001011960191F024B0B6014394038FF
:1010B0000A6010BD950F0008D0E9013201699A60FD
:1010C000D0E901235A604A68824201D182684A60AD
:1010D000002202610868401E08600868704700002E
:1010E000034B036003F154000860802010607047D8
:1010F0007400002000F108014FF0FF32C0E9011236
:10110000C1600161002101607047002101617047E9
:1011100030B50B685A1C02D000F1080202E00269E7
:1011200004E02246546825689D42FAD953684B6012
:1011300099608A60516008610168491C016030BD96
:1011400042684A6093688B60936859609160086157
:101150000168491C01607047502080F31188BFF37B
:101160004F8FBFF36F8F0A494868401C48600128C1
:101170000CD10848006810F0FF0F07D0502080F312
:101180001188BFF34F8FBFF36F8FFEE770470000EA
:101190006800002004ED00E00849486828B1401EBE
:1011A000486001D180F311887047502080F3118886
:1011B000BFF34F8FBFF36F8FFEE700006800002082
:1011C00070B5002827D0144DA0F108046168E868C4
:1011D000014207D1502080F31188BFF34F8FBFF336
:1011E0006F8FFEE722683AB1502080F31188BFF379
:1011F0004F8FBFF36F8FFEE78143616000F07CF893
:1012000060686968084468602046FFF78DFEBDE8A5
:10121000704000F0DBB970BD500000204FF0E020BE
:1012200000210161816105494FF47A720968B1FBBF
:10123000F2F1491E41610721016170471000002051
:1012400010B5020014D00F48806B38B1502080F3E5
:101250001188BFF34F8FBFF36F8FFEE700F04CF89C
:1012600000211046FFF708FD00F0B0F9002807D173
:1012700005494FF080500860BFF34F8FBFF36F8F69
:1012800010BD00001400002004ED00E010B586B091
:101290000024039405AA04A903A80494FFF720FFDF
:1012A000DDE903010094CDE9011000230EA11048EF
:1012B000059A00F0EEF80F490028486311D050203D
:1012C00080F31188BFF34F8FBFF36F8F4FF0FF3064
:1012D00008630120C8614C6106B0BDE8104000F011
:1012E00041B806B010BD000049444C450000000064
:1012F000390E0008140000200248816B491C8163EC
:1013000070470000140000201448816B11B10121C6
:1013100041627047002141628169B1FA81F1C1F1F6
:101320001F0101EB81020E4951F822306BB101EB34
:10133000820101F108034A6852684A609A4201D169
:1013400052684A60D16801607047502080F311886C
:10135000BFF34F8FBFF36F8FFEE700001400002034
:10136000C80200201CB5264908780190FF200870AB
:1013700008788DF800009DF800009DF8002000F02E
:10138000F000904207D0502080F31188BFF34F8FB8
:10139000BFF36F8FFEE79DF800001A4B00F050007E
:1013A00018700720986005E09DF8002052008DF825
:1013B0000020401E9DF800201206F5D498600328F6
:1013C00007D0502080F31188BFF34F8FBFF36F8F8A
:1013D000FEE74FF440709860019808700A48016871
:1013E00041F470010160016841F070410160FFF754
:1013F00015FF00205860FEF795FE00201CBD000080
:1014000000E400E06800002020ED00E010B550206E
:1014100080F31188BFF34F8FBFF36F8F00F072F826
:1014200018B104494FF080500860002080F3118803
:1014300010BD000004ED00E02DE9FF5F8346DDE90B
:101440000E87994616468A469000FFF7B7FD0500BD
:101450001CD05420FFF7B2FD040014D000202563F7
:1014600084F85100CDE90240CDE900874B46324671
:1014700051465846FFF710FD2046FFF735FC012086
:1014800004B0BDE8F09F2846FFF79AFE4FF0FF300A
:10149000F6E7F0B585B0DDE90B640A9DA6B1DCB1D5
:1014A000542700972663022684F85160002604AF73
:1014B000CDE90246CDE90057FFF7EEFC2046FFF7E5
:1014C00013FC049805B0F0BD502080F31188BFF3E1
:1014D0004F8FBFF36F8FFEE7502080F31188BFF36B
:1014E0004F8FBFF36F8FFEE70548C16919B1806B5D
:1014F00018B100207047012070470220704700009B
:10150000140000202DE9F0412E4C0027A06B40B1C3
:10151000206A401C2062606A00B101273846BDE89D
:10152000F0816669761C666113D16068006838B125
:10153000502080F31188BFF34F8FBFF36F8FFEE70A
:101540006068A1686160A060A06A401CA062FFF7AB
:1015500011FD206BDFF87080864209D36068006857
:1015600080B16068C068C568686886420DD2206333
:101570002068C06A00EB800158F821000128CAD910
:101580000127C8E74FF0FF30F1E7281DFFF794FD72
:10159000A86A18B105F11800FFF78EFDE86A01216D
:1015A000A26981401143A16100EB800108EB810039
:1015B000291DFFF7C5FDE86A2168C96A8842CDD3B5
:1015C0000127CBE714000020C80200202DE9F047D6
:1015D0002C4D00242746A86B38B1FFF7BDFDA86B42
:1015E000401EA863A86B40B146E0502080F31188EC
:1015F000BFF34F8FBFF36F8FFEE72969224E0120A3
:10160000D1B3A6F1B40980463068E8B1F068C46887
:1016100004F11800FFF750FD201DFFF74DFDE06AB3
:10162000AA6908FA00F11143A96100EB800109EBF6
:101630008100211DFFF784FDE06A2968C96A88429C
:10164000E2D3C5F82480DFE70CB1FFF793FC2C6AE6
:1016500044B14646FFF756FF00B16E62641EF9D1F1
:1016600000202862686A38B10849012738070860F5
:10167000BFF34F8FBFF36F8FFFF78EFD3846BDE886
:10168000F0870000140000207C03002004ED00E03F
:10169000E4160008590A00080000000000000000DD
:1016A000000400000000000000000000D816000840
:1016B000390A00080000000000000000800000005F
:1016C000000000000000000000000000000000001A
:1016D000010203040607080964656661756C7454A9
:1016E00061736B0064656661756C745461736B6ED5
:1016F0006577000014170008000000207400000047
:10170000460B0008881700087400002044430000BE
:10171000560B00080000000001000000100000004F
:10172000000000000024F4000000000000000000A1
:1017300000000000000000000000000000000000A9
:101740000000000000000000000000000000000099
:101750000000000000000000000000000000000089
:101760000000000000000000000000000000000079
:101770000000000000000000000000000000000069
:08178000AAAAAAAA00000000B9
:04000005080000ED02
:00000001FF
